:020000000A28CC
:10000800FE00030EF1000A08F2006E2B0B284A24AA
:10001800A30083010F288316031386012224B62325
:100028008B170B1783120313A301A30A0A30F300DB
:100038000030F40095232330D1230130D1233C3004
:10004800D123C42A1124C33083120313A100CC3056
:10005800A000A00B2D28A10B2D283228FF23C33088
:1000680083120313A100CC30A000A00B3928A10BE8
:1000780039283E28C33083120313A100CC30A000D6
:10008800A00B4428A10B44284928FF2302308312DF
:100098000313A2008630A1009830A000A00B5228BC
:1000A800A10B5228A20B522859281124C3308312BD
:1000B8000313A100CC30A000A00B6028A10B60287E
:1000C80065281124C33083120313A100CC30A0008B
:1000D800A00B6C28A10B6C287128FF23C330831256
:1000E8000313A100CC30A000A00B7828A10B78281E
:1000F8007D281124023083120313A2008630A10048
:100108009830A000A00B8628A10B8628A20B862871
:100118008D281124C33083120313A100CC30A00012
:10012800A00B9428A10B94289928FF23C33083128D
:100138000313A100CC30A000A00BA028A10BA0287D
:10014800A5281124C33083120313A100CC30A000CA
:10015800A00BAC28A10BAC28B128FF2302308312D6
:100168000313A2008630A1009830A000A00BBA2883
:10017800A10BBA28A20BBA28C1281124C3308312B4
:100188000313A100CC30A000A00BC828A10BC828DD
:10019800CD281124C33083120313A100CC30A00052
:1001A800A00BD428A10BD428D928FF23C33083124D
:1001B8000313A100CC30A000A00BE028A10BE0287D
:1001C800E5281124023083120313A2008630A1000F
:1001D8009830A000A00BEE28A10BEE28A20BEE2869
:1001E800F5281124C33083120313A100CC30A000DA
:1001F800A00BFC28A10BFC280129FF23C330831284
:100208000313A100CC30A000A00B0829A10B0829DA
:100218000D291124C33083120313A100CC30A00090
:10022800A00B1429A10B14291929FF2302308312CA
:100238000313A2008630A1009830A000A00B222949
:10024800A10B2229A20B222929291124C3308312A8
:100258000313A100CC30A000A00B3029A10B30293A
:1002680035291124C33083120313A100CC30A00018
:10027800A00B3C29A10B3C294129FF23C330831241
:100288000313A100CC30A000A00B4829A10B4829DA
:100298004D291124023083120313A2008630A100D5
:1002A8009830A000A00B5629A10B5629A20B56295D
:1002B8005D291124C33083120313A100CC30A000A0
:1002C800A00B6429A10B64296929FF23C330831279
:1002D8000313A100CC30A000A00B7029A10B70293A
:1002E80075291124023083120313A2008630A1005D
:1002F8009830A000A00B7E29A10B7E29A20B7E2995
:1003080085291124C33083120313A100CC30A00027
:10031800A00B8C29A10B8C2991291124C33083129D
:100328000313A100CC30A000A00B9829A10B982999
:100338009D29FF23023083120313A2008630A100F7
:100348009830A000A00BA629A10BA629A20BA629CC
:10035800AD291124C33083120313A100CC30A000AF
:10036800A00BB429A10BB429B9291124C3308312D5
:100378000313A100CC30A000A00BC029A10BC029F9
:10038800C529FF23C33083120313A100CC30A0007A
:10039800A00BCC29A10BCC29D129FF23C330831270
:1003A8000313A100CC30A000A00BD829A10BD82999
:1003B800DD29FF23023083120313A2008630A10037
:1003C8009830A000A00BE629A10BE629A20BE6298C
:1003D800ED29FF23C33083120313A100CC30A00002
:1003E800A00BF429A10BF429F9291124C330831295
:1003F8000313A100CC30A000A00B002AA10B002AF7
:10040800052AFF23023083120313A2008630A100BD
:100418009830A000A00B0E2AA10B0E2AA20B0E2AC0
:10042800152A1124C33083120313A100CC30A00075
:10043800A00B1C2AA10B1C2A212AFF23023083129D
:100448000313A2008630A1009830A000A00B2A2A2E
:10045800A10B2A2AA20B2A2A312A1124C33083127B
:100468000313A100CC30A000A00B382AA10B382A16
:100478003D2A1124023083120313A2008630A10002
:100488009830A000A00B462AA10B462AA20B462AA8
:100498004D2A1124C33083120313A100CC30A000CD
:1004A800A00B542AA10B542A592AFF23C3308312C4
:1004B8000313A100CC30A000A00B602AA10B602A76
:1004C800652AFF23C33083120313A100CC30A00098
:1004D800A00B6C2AA10B6C2A712A1124C330831239
:1004E8000313A100CC30A000A00B782AA10B782A16
:1004F8007D2AFF23023083120313A2008630A10055
:100508009830A000A00B862AA10B862AA20B862A67
:100518008D2A1124C33083120313A100CC30A0000C
:10052800A00B942AA10B942A992AFF23C330831283
:100538000313A100CC30A000A00BA02AA10BA02A75
:10054800A52AFF23C33083120313A100CC30A000D7
:10055800A00BAC2AA10BAC2AB12AFF2383120313E8
:1005680006104D3083120313A2001930A1004F303A
:10057800A000A00BBD2AA10BBD2AA20BBD2A00001A
:10058800831203132303031926285430D12306307A
:1005980083120313A2001330A100AD30A000A00BFA
:0E05A800D32AA10BD32AA20BD32A0000C42A07
:1006000003308A000408840A820700342A342A341A
:100610002A3456346534723473346934793461342D
:10062000203431342E3430342E34313420342834D4
:10063000313432342F34323434342F343234303491
:100640003234333429342A342A342A340A340034F4
:100650002A342A342A3434344B342F344B3447343C
:10066000373452344E344D3420344D34613479347F
:1006700061346B34693421342A342A342A340A34FC
:1006800000342A342A342A344D34613479346134C4
:100690006B34203462346134733468346C346134C4
:1006A00079346934723421342A342A342A340A34AD
:1006B00000344D346134793461346B342034443443
:1006C0006134793461346E34643469347234693439
:1006D0006C346934623421340A34003483120313D5
:1006E0008C1A981C752B181218161A083A245230B6
:1006F000831203131A06031D832BA301A30A0A30D6
:100700003A244B303A245330831203131A06031D44
:100710008E2BA3010A303A244B303A2472088A0007
:10072000710E8300FE0E7E0E09007408F600730839
:10073000F5000310F60CF50C0310F60CF50C75081B
:10074000831203139500CF30F500750897057308E1
:10075000F50003300310F50DFF3E031DAA2B031017
:10076000750D3039F60076089704080083160313D8
:1007700006118614193099001815181283120313E4
:10078000981718169812831603130C128C16181348
:100790008312031318138316031398121810981654
:1007A0000800FA00F801F9017A08EA2379087402CE
:1007B000031DDC2B78087302031C080078087A07F5
:1007C0008400002332240130F8070318F90A0030AE
:1007D000F907D42BF6007608F70077088400002389
:1007E000003A0319F82B0130F5007508F707ED2BD7
:1007F00076087702F300F401F31BF40308004624A3
:100800008312031306144130F400EE30F300F30BAF
:10081000072CF40B072C000083120313061042244C
:1008200008004624831203130614C330F400CD30AD
:10083000F300F30B192CF40B192C8312031306107D
:10084000422408008316031386110C30831203130D
:1008500097005E3083160313920083120313121461
:1008600092100800F300831203130C1E332C73083C
:1008700099000800F000831203130C1E3B2C700833
:100880009900080083120313121108008312031346
:06089000121508000134FE
:08400000FF3FFF3FFF3FFF3FC0
:02400E00EA3F87
:00000001FF
