:020000000A28CC
:10000800FE00030EF1000A08F2006E2B0B284E24A6
:10001800A30083010F288316031386012624BA231D
:100028008B170B1783120313A301A30A0A30F300DB
:100038000030F40099232330D5230130D5233C30F8
:10004800D523C42A1524C33083120313A100CC304E
:10005800A000A00B2D28A10B2D2832280324C33083
:1000680083120313A100CC30A000A00B3928A10BE8
:1000780039283E28C33083120313A100CC30A000D6
:10008800A00B4428A10B44284928032402308312DA
:100098000313A2008630A1009830A000A00B5228BC
:1000A800A10B5228A20B522859281524C3308312B9
:1000B8000313A100CC30A000A00B6028A10B60287E
:1000C80065281524C33083120313A100CC30A00087
:1000D800A00B6C28A10B6C2871280324C330831251
:1000E8000313A100CC30A000A00B7828A10B78281E
:1000F8007D281524023083120313A2008630A10044
:100108009830A000A00B8628A10B8628A20B862871
:100118008D281524C33083120313A100CC30A0000E
:10012800A00B9428A10B942899280324C330831288
:100138000313A100CC30A000A00BA028A10BA0287D
:10014800A5281524C33083120313A100CC30A000C6
:10015800A00BAC28A10BAC28B128032402308312D1
:100168000313A2008630A1009830A000A00BBA2883
:10017800A10BBA28A20BBA28C1281524C3308312B0
:100188000313A100CC30A000A00BC828A10BC828DD
:10019800CD281524C33083120313A100CC30A0004E
:1001A800A00BD428A10BD428D9280324C330831248
:1001B8000313A100CC30A000A00BE028A10BE0287D
:1001C800E5281524023083120313A2008630A1000B
:1001D8009830A000A00BEE28A10BEE28A20BEE2869
:1001E800F5281524C33083120313A100CC30A000D6
:1001F800A00BFC28A10BFC2801290324C33083127F
:100208000313A100CC30A000A00B0829A10B0829DA
:100218000D291524C33083120313A100CC30A0008C
:10022800A00B1429A10B14291929032402308312C5
:100238000313A2008630A1009830A000A00B222949
:10024800A10B2229A20B222929291524C3308312A4
:100258000313A100CC30A000A00B3029A10B30293A
:1002680035291524C33083120313A100CC30A00014
:10027800A00B3C29A10B3C2941290324C33083123C
:100288000313A100CC30A000A00B4829A10B4829DA
:100298004D291524023083120313A2008630A100D1
:1002A8009830A000A00B5629A10B5629A20B56295D
:1002B8005D291524C33083120313A100CC30A0009C
:1002C800A00B6429A10B642969290324C330831274
:1002D8000313A100CC30A000A00B7029A10B70293A
:1002E80075291524023083120313A2008630A10059
:1002F8009830A000A00B7E29A10B7E29A20B7E2995
:1003080085291524C33083120313A100CC30A00023
:10031800A00B8C29A10B8C2991291524C330831299
:100328000313A100CC30A000A00B9829A10B982999
:100338009D290324023083120313A2008630A100F2
:100348009830A000A00BA629A10BA629A20BA629CC
:10035800AD291524C33083120313A100CC30A000AB
:10036800A00BB429A10BB429B9291524C3308312D1
:100378000313A100CC30A000A00BC029A10BC029F9
:10038800C5290324C33083120313A100CC30A00075
:10039800A00BCC29A10BCC29D1290324C33083126B
:1003A8000313A100CC30A000A00BD829A10BD82999
:1003B800DD290324023083120313A2008630A10032
:1003C8009830A000A00BE629A10BE629A20BE6298C
:1003D800ED290324C33083120313A100CC30A000FD
:1003E800A00BF429A10BF429F9291524C330831291
:1003F8000313A100CC30A000A00B002AA10B002AF7
:10040800052A0324023083120313A2008630A100B8
:100418009830A000A00B0E2AA10B0E2AA20B0E2AC0
:10042800152A1524C33083120313A100CC30A00071
:10043800A00B1C2AA10B1C2A212A03240230831298
:100448000313A2008630A1009830A000A00B2A2A2E
:10045800A10B2A2AA20B2A2A312A1524C330831277
:100468000313A100CC30A000A00B382AA10B382A16
:100478003D2A1524023083120313A2008630A100FE
:100488009830A000A00B462AA10B462AA20B462AA8
:100498004D2A1524C33083120313A100CC30A000C9
:1004A800A00B542AA10B542A592A0324C3308312BF
:1004B8000313A100CC30A000A00B602AA10B602A76
:1004C800652A0324C33083120313A100CC30A00093
:1004D800A00B6C2AA10B6C2A712A1524C330831235
:1004E8000313A100CC30A000A00B782AA10B782A16
:1004F8007D2A0324023083120313A2008630A10050
:100508009830A000A00B862AA10B862AA20B862A67
:100518008D2A1524C33083120313A100CC30A00008
:10052800A00B942AA10B942A992A0324C33083127E
:100538000313A100CC30A000A00BA02AA10BA02A75
:10054800A52A0324C33083120313A100CC30A000D2
:10055800A00BAC2AA10BAC2AB12A032483120313E3
:1005680006104D3083120313A2001930A1004F303A
:10057800A000A00BBD2AA10BBD2AA20BBD2A00001A
:10058800831203132303031926285430D523063076
:1005980083120313A2001330A100AD30A000A00BFA
:0E05A800D32AA10BD32AA20BD32A0000C42A07
:1006000003308A000408840A820700342A342A341A
:100610002A3456346534723473346934793461342D
:10062000203431342E3430342E34313420342834D4
:10063000313432342F34323434342F343234303491
:100640003234333429342A342A342A340A340034F4
:100650002A342A342A3434344B342F344B3447343C
:10066000373452344E344D3420344D34613479347F
:1006700061346B34693421342A342A342A340A34FC
:1006800000342A342A342A344D34613479346134C4
:100690006B34203462346134733468346C346134C4
:1006A00079346934723421342A342A342A340A34AD
:1006B00000344D346134793461346B342034443443
:1006C0006134793461346E34643469347234693439
:1006D0006C346934623421340A34003483120313D5
:1006E0008C1A981C752B181218161A083E245230B2
:1006F000831203131A06031D852BA301A30A0A30D4
:100700003E244F303E244B303E245330831203139B
:100710001A06031D922BA3010A303E244F303E24BB
:100720004B303E2472088A00710E8300FE0E7E0E4E
:1007300009007408F6007308F5000310F60CF50CB8
:100740000310F60CF50C7508831203139500CF30D7
:10075000F500750897057308F50003300310F50DD3
:10076000FF3E031DAE2B0310750D3039F6007608E1
:100770009704080083160313061186141930990094
:100780001815181283120313981718169812831647
:1007900003130C128C1618138312031318138316E9
:1007A00003139812181098160800FA00F801F901BE
:1007B0007A08EE2379087402031DE02B780873028F
:1007C000031C080078087A078400002336240130CF
:1007D000F8070318F90A0030F907D82BF600760855
:1007E000F700770884000023003A0319FC2B01303E
:1007F000F5007508F707F12B76087702F300F4018E
:10080000F31BF40308004A24831203130614413037
:10081000F400EE30F300F30B0B2CF40B0B2C000068
:10082000831203130610462408004A24831203137C
:100830000614C330F400CD30F300F30B1D2CF40B81
:100840001D2C83120313061046240800831603137D
:1008500086110C308312031397005E308316031346
:10086000920083120313121492100800F3008312F3
:1008700003130C1E372C730899000800F000831234
:1008800003130C1E3F2C70089900080083120313F9
:0E089000121108008312031312150800013420
:08400000FF3FFF3FFF3FFF3FC0
:02400E00EA3F87
:00000001FF
