:020000001028C6
:10000800FE00030EF1000408F2000A08F300831250
:1000180003137F08F400DF2A1128F701F801830190
:10002800152818230A30F5000030F600BE22831682
:10003800031306100723C33083120313A300CC3025
:10004800A200A20B2528A30B25282A28F522C330B5
:1000580083120313A300CC30A200A20B3128A30BF8
:10006800312836280723C33083120313A300CC306A
:10007800A200A20B3D28A30B3D284228F5220230FE
:1000880083120313A4008630A3009830A200A20BA9
:100098004B28A30B4B28A40B4B2852280723C3300B
:1000A80083120313A300CC30A200A20B5928A30B80
:1000B80059285E280723C33083120313A300CC30CA
:1000C800A200A20B6528A30B65286A28F522C33075
:1000D80083120313A300CC30A200A20B7128A30B38
:1000E800712876280723023083120313A400863070
:1000F800A3009830A200A20B7F28A30B7F28A40B93
:100108007F2886280723C33083120313A300CC302B
:10011800A200A20B8D28A30B8D289228F522C330AC
:1001280083120313A300CC30A200A20B9928A30BBF
:1001380099289E280723C33083120313A300CC30C9
:10014800A200A20BA528A30BA528AA28F5220230F5
:1001580083120313A4008630A3009830A200A20BD8
:10016800B328A30BB328A40BB328BA280723C3309A
:1001780083120313A300CC30A200A20BC128A30B47
:10018800C128C6280723C33083120313A300CC3029
:10019800A200A20BCD28A30BCD28D228F522C3306C
:1001A80083120313A300CC30A200A20BD928A30BFF
:1001B800D928DE280723023083120313A4008630CF
:1001C800A3009830A200A20BE728A30BE728A40BF2
:1001D800E728EE280723C33083120313A300CC308B
:1001E800A200A20BF528A30BF528FA28F522C330A4
:1001F80083120313A300CC30A200A20B0129A30B86
:10020800012906290723C33083120313A300CC3026
:10021800A200A20B0D29A30B0D291229F5220230E9
:1002280083120313A4008630A3009830A200A20B07
:100238001B29A30B1B29A40B1B2922290723C33025
:1002480083120313A300CC30A200A20B2929A30B0D
:1002580029292E290723C33083120313A300CC3086
:10026800A200A20B3529A30B35293A29F522C33060
:1002780083120313A300CC30A200A20B4129A30BC5
:10028800412946290723023083120313A40086302C
:10029800A3009830A200A20B4F29A30B4F29A40B4F
:1002A8004F2956290723C33083120313A300CC30E8
:1002B800A200A20B5D29A30B5D296229F522C33098
:1002C80083120313A300CC30A200A20B6929A30B4D
:1002D80069296E290723023083120313A40086308C
:1002E800A3009830A200A20B7729A30B7729A40BAF
:1002F80077297E290723C33083120313A300CC3048
:10030800A200A20B8529A30B85298A290723C330BC
:1003180083120313A300CC30A200A20B9129A30BD4
:1003280091299629F522023083120313A4008630FE
:10033800A3009830A200A20B9F29A30B9F29A40B0E
:100348009F29A6290723C33083120313A300CC30A7
:10035800A200A20BAD29A30BAD29B2290723C330F4
:1003680083120313A300CC30A200A20BB929A30B5C
:10037800B929BE29F522C33083120313A300CC3058
:10038800A200A20BC529A30BC529CA29F522C3308F
:1003980083120313A300CC30A200A20BD129A30B14
:1003A800D129D629F522023083120313A4008630FE
:1003B800A3009830A200A20BDF29A30BDF29A40B0E
:1003C800DF29E629F522C33083120313A300CC30BA
:1003D800A200A20BED29A30BED29F2290723C330B4
:1003E80083120313A300CC30A200A20BF929A30B9C
:1003F800F929FE29F522023083120313A40086305E
:10040800A3009830A200A20B072AA30B072AA40B6B
:10041800072A0E2A0723C33083120313A300CC3004
:10042800A200A20B152AA30B152A1A2AF5220230BC
:1004380083120313A4008630A3009830A200A20BF5
:10044800232AA30B232AA40B232A2A2A0723C330EF
:1004580083120313A300CC30A200A20B312AA30BF2
:10046800312A362A0723023083120313A400863068
:10047800A3009830A200A20B3F2AA30B3F2AA40B8B
:100488003F2A462A0723C33083120313A300CC3024
:10049800A200A20B4D2AA30B4D2A522AF522C330E3
:1004A80083120313A300CC30A200A20B592AA30B7A
:1004B800592A5E2AF522C33083120313A300CC30D5
:1004C800A200A20B652AA30B652A6A2A0723C33058
:1004D80083120313A300CC30A200A20B712AA30B32
:1004E800712A762AF522023083120313A40086307B
:1004F800A3009830A200A20B7F2AA30B7F2AA40B8B
:100508007F2A862A0723C33083120313A300CC3023
:10051800A200A20B8D2AA30B8D2A922AF522C330A2
:1005280083120313A300CC30A200A20B992AA30BB9
:10053800992A9E2AF522C33083120313A300CC30D4
:10054800A200A20BA52AA30BA52AAA2AF522831288
:10055800031306104D3083120313A4001930A300AF
:100568004F30A200A20BB62AA30BB62AA40BB62AB8
:1005780000001E28760883120313A1007508A00046
:100588000310A10CA00C0310A10CA00C20089500CE
:10059800CF30A000200897057508A000033003108D
:1005A800A00DFF3E031DD32A0310200D3039A100F2
:1005B8002108970408008C1A981CE42A18121816A7
:1005C800F701F8014B302823740883120313FF0046
:1005D80073088A0072088400710E8300FE0E7E0E76
:1005E800090034238312031306144130F600EE3059
:1005F800F500F50BFD2AF60BFD2A00008312031304
:100608000610302308003423831203130614C33062
:10061800F600CD30F500F50B0F2BF60B0F2B8312E0
:1006280003130610302308008316031386110C30B9
:100638008312031397005E3083160313920083120C
:100648000313121492100800F000831203130C1EF7
:10065800292B70089900080083120313121108004F
:080668008312031312150800B0
:02400E00EAFFC7
:00000001FF
