:020000001028C6
:10000800FE00030EF1000408F2000A08F300831250
:1000180003137F08F400C32A1128F701F8018301AC
:1000280015282D230A30F5000030F600E922831642
:100038000313061077037804031DC22A1C23C33058
:1000480083120313A300CC30A200A20B2928A30B10
:1000580029282E280A23C33083120313A300CC3087
:10006800A200A20B3528A30B35283A281C23C3303D
:1000780083120313A300CC30A200A20B4128A30BC8
:10008800412846280A23023083120313A40086302D
:10009800A3009830A200A20B4F28A30B4F28A40B53
:1000A8004F2856281C23C33083120313A300CC30D7
:1000B800A200A20B5D28A30B5D2862281C23C33075
:1000C80083120313A300CC30A200A20B6928A30B50
:1000D80069286E280A23C33083120313A300CC3087
:1000E800A200A20B7528A30B75287A281C230230BE
:1000F80083120313A4008630A3009830A200A20B39
:100108008328A30B8328A40B83288A281C23C330A5
:1001180083120313A300CC30A200A20B9128A30BD7
:10012800912896280A23C33083120313A300CC30E6
:10013800A200A20B9D28A30B9D28A2281C23C33034
:1001480083120313A300CC30A200A20BA928A30B8F
:10015800A928AE280A23023083120313A40086308C
:10016800A3009830A200A20BB728A30BB728A40BB2
:10017800B728BE281C23C33083120313A300CC3036
:10018800A200A20BC528A30BC528CA281C23C3306C
:1001980083120313A300CC30A200A20BD128A30B17
:1001A800D128D6280A23C33083120313A300CC30E6
:1001B800A200A20BDD28A30BDD28E2281C230230B5
:1001C80083120313A4008630A3009830A200A20B68
:1001D800EB28A30BEB28A40BEB28F2281C23C33035
:1001E80083120313A300CC30A200A20BF928A30B9F
:1001F800F928FE280A23C33083120313A300CC3046
:10020800A200A20B0529A30B05290A291C23C33028
:1002180083120313A300CC30A200A20B1129A30B55
:10022800112916290A23023083120313A4008630E9
:10023800A3009830A200A20B1F29A30B1F29A40B0F
:100248001F2926291C23C33083120313A300CC3093
:10025800A200A20B2D29A30B2D2932291C23C33060
:1002680083120313A300CC30A200A20B3929A30BDD
:1002780039293E290A23C33083120313A300CC3043
:10028800A200A20B4529A30B45294A291C230230A9
:1002980083120313A4008630A3009830A200A20B97
:1002A8005329A30B5329A40B53295A291C23C330C0
:1002B80083120313A300CC30A200A20B6129A30B65
:1002C800612966290A23C33083120313A300CC30A3
:1002D800A200A20B6D29A30B6D2972291C230230E1
:1002E80083120313A4008630A3009830A200A20B47
:1002F8007B29A30B7B29A40B7B2982291C23C330D0
:1003080083120313A300CC30A200A20B8929A30BEC
:1003180089298E291C23C33083120313A300CC30F0
:10032800A200A20B9529A30B95299A290A2302302A
:1003380083120313A4008630A3009830A200A20BF6
:10034800A329A30BA329A40BA329AA291C23C330DF
:1003580083120313A300CC30A200A20BB129A30B74
:10036800B129B6291C23C33083120313A300CC3050
:10037800A200A20BBD29A30BBD29C2290A23C330A1
:1003880083120313A300CC30A200A20BC929A30B2C
:10039800C929CE290A23C33083120313A300CC3002
:1003A800A200A20BD529A30BD529DA290A230230EA
:1003B80083120313A4008630A3009830A200A20B76
:1003C800E329A30BE329A40BE329EA290A23C33071
:1003D80083120313A300CC30A200A20BF129A30BB4
:1003E800F129F6291C23C33083120313A300CC3050
:1003F800A200A20BFD29A30BFD29022A0A23023021
:1004080083120313A4008630A3009830A200A20B25
:100418000B2AA30B0B2AA40B0B2A122A1C23C3306A
:1004280083120313A300CC30A200A20B192AA30B3A
:10043800192A1E2A0A23023083120313A4008630C5
:10044800A3009830A200A20B272AA30B272AA40BEB
:10045800272A2E2A1C23C33083120313A300CC306F
:10046800A200A20B352AA30B352A3A2A1C230230F4
:1004780083120313A4008630A3009830A200A20BB5
:10048800432AA30B432AA40B432A4A2A1C23C3301A
:1004980083120313A300CC30A200A20B512AA30B92
:1004A800512A562A0A23C33083120313A300CC30DF
:1004B800A200A20B5D2AA30B5D2A622A0A23C3307D
:1004C80083120313A300CC30A200A20B692AA30B4A
:1004D800692A6E2A1C23C33083120313A300CC306D
:1004E800A200A20B752AA30B752A7A2A0A230230C6
:1004F80083120313A4008630A3009830A200A20B35
:10050800832AA30B832AA40B832A8A2A1C23C33099
:1005180083120313A300CC30A200A20B912AA30BD1
:10052800912A962A0A23C33083120313A300CC30DE
:10053800A200A20B9D2AA30B9D2AA22A0A23C3303C
:1005480083120313A300CC30A200A20BA92AA30B89
:10055800A92AAE2A0A238312031306104D308312E8
:100568000313A4001930A3004F30A200A20BBA2A2B
:10057800A30BBA2AA40BBA2A00001E2810288C1A2A
:10058800981CC82A1812181646301A06031DD02AB5
:10059800F701F8014B303D235330831203131A0639
:1005A800031DDC2A0130F7000030F8004B303D23F2
:1005B800740883120313FF0073088A00720884000A
:1005C800710E8300FE0E7E0E090076088312031357
:1005D800A1007508A0000310A10CA00C0310A10C29
:1005E800A00C20089500CF30A000200897057508BA
:1005F800A00003300310A00DFF3E031DFE2A0310C8
:10060800200D3039A10021089704080049238312DE
:10061800031306144130F600EE30F500F50B122BEB
:10062800F60B122B00008312031306104523080053
:100638004923831203130614C330F600CD30F500A6
:10064800F50B242BF60B242B8312031306104523DA
:1006580008008316031386110C30831203139700C6
:100668005E30831603139200831203131214921040
:100678000800F000831203130C1E3E2B700899002B
:1006880008008312031312110800831203131215B2
:02069800080058
:02400E00EAFFC7
:00000001FF
