:02000000FE2FD1
:100B22008312031312150800831203131211080013
:100B32008316031386110C308312031397005E3061
:100B420083160313920083120313121492100800E7
:100B52009125831203130614C330F100CD30F00047
:100B6200F00BB12DF10BB12D831203130610952555
:100B7200080091258312031306144130F100EE3070
:100B8200F000F00BC22DF10BC22D000083120313F3
:100B92000610952508007108F3007008F200031092
:100BA200F30CF20C0310F30CF20C72088312031311
:100BB2009500CF30F200720897057008F2000330FA
:100BC2000310F20DFF3E031DE12D0310720D3039AB
:100BD200F30073089704080099250A30F0000030EA
:100BE200F100CC25831603130610A925C330F500A6
:100BF200CD30F400F40BFB2DF50BFB2DBA25C330E1
:100C0200F500CD30F400F40B042EF50B042EA925CB
:100C1200C330F500CD30F400F40B0D2EF50B0D2E84
:100C2200BA250230F6008630F5009930F400F40B54
:100C3200182EF50B182EF60B182EA925C330F50029
:100C4200CD30F400F40B232EF50B232EA925C3304F
:100C5200F500CD30F400F40B2C2EF50B2C2EBA251A
:100C6200C330F500CD30F400F40B352EF50B352EE4
:100C7200A9250230F6008630F5009930F400F40B15
:100C8200402EF50B402EF60B402EA925C330F50061
:100C9200CD30F400F40B4B2EF50B4B2EBA25C3309E
:100CA200F500CD30F400F40B542EF50B542EA9258B
:100CB200C330F500CD30F400F40B5D2EF50B5D2E44
:100CC200BA250230F6008630F5009930F400F40BB4
:100CD200682EF50B682EF60B682EA925C330F50099
:100CE200CD30F400F40B732EF50B732EA925C3300F
:100CF200F500CD30F400F40B7C2EF50B7C2EBA25DA
:100D0200C330F500CD30F400F40B852EF50B852EA3
:100D1200A9250230F6008630F5009930F400F40B74
:100D2200902EF50B902EF60B902EA925C330F500D0
:100D3200CD30F400F40B9B2EF50B9B2EBA25C3305D
:100D4200F500CD30F400F40BA42EF50BA42EA9254A
:100D5200C330F500CD30F400F40BAD2EF50BAD2E03
:100D6200BA250230F6008630F5009930F400F40B13
:100D7200B82EF50BB82EF60BB82EA925C330F50008
:100D8200CD30F400F40BC32EF50BC32EA925C330CE
:100D9200F500CD30F400F40BCC2EF50BCC2EBA2599
:100DA200C330F500CD30F400F40BD52EF50BD52E63
:100DB200A9250230F6008630F5009930F400F40BD4
:100DC200E02EF50BE02EF60BE02EA925C330F50040
:100DD200CD30F400F40BEB2EF50BEB2EBA25C3301D
:100DE200F500CD30F400F40BF42EF50BF42EA9250A
:100DF2000230F6008630F5009930F400F40BFF2E35
:100E0200F50BFF2EF60BFF2EA925C330F500CD30D2
:100E1200F400F40B0A2FF50B0A2FA925C330F500B5
:100E2200CD30F400F40B132FF50B132FBA2502303B
:100E3200F6008630F5009930F400F40B1E2FF50B06
:100E42001E2FF60B1E2FA925C330F500CD30F4005E
:100E5200F40B292FF50B292FA925C330F500CD302E
:100E6200F400F40B322FF50B322FBA25C330F50004
:100E7200CD30F400F40B3B2FF50B3B2FBA25C330DA
:100E8200F500CD30F400F40B442FF50B442FBA25B6
:100E92000230F6008630F5009930F400F40B4F2F43
:100EA200F50B4F2FF60B4F2FBA25C330F500CD307F
:100EB200F400F40B5A2FF50B5A2FA925C330F50075
:100EC200CD30F400F40B632FF50B632FBA250230FB
:100ED200F6008630F5009930F400F40B6E2FF50B16
:100EE2006E2FF60B6E2FA925C330F500CD30F4001E
:100EF200F40B792FF50B792FBA250230F6008630E4
:100F0200F5009930F400F40B842FF50B842FF60BC7
:100F1200842FA925C330F500CD30F400F40B8F2FB8
:100F2200F50B8F2FA9250230F6008630F500993097
:100F3200F400F40B9A2FF50B9A2FF60B9A2FA92592
:100F4200C330F500CD30F400F40BA52FF50BA52F1F
:100F5200BA25C330F500CD30F400F40BAE2FF50BFB
:100F6200AE2FBA25C330F500CD30F400F40BB72F05
:100F7200F50BB72FA925C330F500CD30F400F40BE3
:100F8200C02FF50BC02FBA250230F6008630F500CF
:100F92009930F400F40BCB2FF50BCB2FF60BCB2FA4
:100FA200A925C330F500CD30F400F40BD62FF50B94
:100FB200D62FBA25C330F500CD30F400F40BDF2F65
:100FC200F50BDF2FBA25C330F500CD30F400F40B5A
:100FD200E82FF50BE82FBA258312031306104D30C4
:100FE200F6001930F5004F30F400F40BF62FF50B34
:0E0FF200F62FF60BF62FFD2FF62D8301ED2DB9
:08400000FF3FFF3FFF3FFF3FC0
:02400E00EA3F87
:00000001FF
