:02000000FE2FD1
:100AEE008312031312150800831203131211080048
:100AFE008316031386110C308312031397005E3096
:100B0E00831603139200831203131214921008001B
:100B1E007725831203130614C330F100CD30F00095
:100B2E00F00B972DF10B972D8312031306107B25D7
:100B3E00080077258312031306144130F100EE30BE
:100B4E00F000F00BA82DF10BA82D0000831203135B
:100B5E0006107B2508007108F3007008F2000310E0
:100B6E00F30CF20C0310F30CF20C72088312031345
:100B7E009500CF30F200720897057008F20003302E
:100B8E000310F20DFF3E031DC72D0310720D3039F9
:100B9E00F3007308970408007F250A30F000003038
:100BAE00F100B2258316031306108F25C330F5000E
:100BBE00CD30F400F40BE12DF50BE12DA025C33063
:100BCE00F500CD30F400F40BEA2DF50BEA2D8F2550
:100BDE00C330F500CD30F400F40BF32DF50BF32DEF
:100BEE00A0250230F6008630F5009930F400F40BA3
:100BFE00FE2DF50BFE2DF60BFE2D8F25C330F500C9
:100C0E00CD30F400F40B092EF50B092E8F25C330D1
:100C1E00F500CD30F400F40B122EF50B122EA0259C
:100C2E00C330F500CD30F400F40B1B2EF50B1B2E4C
:100C3E008F250230F6008630F5009930F400F40B63
:100C4E00262EF50B262EF60B262E8F25C330F500FD
:100C5E00CD30F400F40B312EF50B312EA025C33020
:100C6E00F500CD30F400F40B3A2EF50B3A2E8F250D
:100C7E00C330F500CD30F400F40B432EF50B432EAC
:100C8E00A0250230F6008630F5009930F400F40B02
:100C9E004E2EF50B4E2EF60B4E2E8F25C330F50035
:100CAE00CD30F400F40B592EF50B592E8F25C33091
:100CBE00F500CD30F400F40B622EF50B622EA0255C
:100CCE00C330F500CD30F400F40B6B2EF50B6B2E0C
:100CDE008F250230F6008630F5009930F400F40BC3
:100CEE00762EF50B762EF60B762E8F25C330F5006D
:100CFE00CD30F400F40B812EF50B812EA025C330E0
:100D0E00F500CD30F400F40B8A2EF50B8A2E8F25CC
:100D1E00C330F500CD30F400F40B932EF50B932E6B
:100D2E00A0250230F6008630F5009930F400F40B61
:100D3E009E2EF50B9E2EF60B9E2E8F25C330F500A4
:100D4E00CD30F400F40BA92EF50BA92E8F25C33050
:100D5E00F500CD30F400F40BB22EF50BB22EA0251B
:100D6E00C330F500CD30F400F40BBB2EF50BBB2ECB
:100D7E008F250230F6008630F5009930F400F40B22
:100D8E00C62EF50BC62EF60BC62E8F25C330F500DC
:100D9E00CD30F400F40BD12EF50BD12EA025C3309F
:100DAE00F500CD30F400F40BDA2EF50BDA2E8F258C
:100DBE000230F6008630F5009930F400F40BE52E83
:100DCE00F50BE52EF60BE52E8F25C330F500CD3055
:100DDE00F400F40BF02EF50BF02E8F25C330F5003A
:100DEE00CD30F400F40BF92EF50BF92EA0250230C0
:100DFE00F6008630F5009930F400F40B042FF50B55
:100E0E00042FF60B042F8F25C330F500CD30F400E0
:100E1E00F40B0F2FF50B0F2F8F25C330F500CD30B0
:100E2E00F400F40B182FF50B182FA025C330F50086
:100E3E00CD30F400F40B212FF50B212FA025C3305C
:100E4E00F500CD30F400F40B2A2FF50B2A2FA02538
:100E5E000230F6008630F5009930F400F40B352F91
:100E6E00F50B352FF60B352FA025C330F500CD3001
:100E7E00F400F40B402FF50B402F8F25C330F500F7
:100E8E00CD30F400F40B492FF50B492FA02502307D
:100E9E00F6008630F5009930F400F40B542FF50B64
:100EAE00542FF60B542F8F25C330F500CD30F400A0
:100EBE00F40B5F2FF50B5F2FA0250230F600863066
:100ECE00F5009930F400F40B6A2FF50B6A2FF60B30
:100EDE006A2F8F25C330F500CD30F400F40B752F3B
:100EEE00F50B752F8F250230F6008630F500993000
:100EFE00F400F40B802FF50B802FF60B802FA0251E
:100F0E00C330F500CD30F400F40B8B2FF50B8B2F87
:100F1E008F25C330F500CD30F400F40B942FF50B74
:100F2E00942F8F25C330F500CD30F400F40B9D2F98
:100F3E00F50B9D2FA0250230F6008630F500993076
:100F4E00F400F40BA82FF50BA82FF60BA82FA02555
:100F5E00C330F500CD30F400F40BB32FF50BB32FE7
:100F6E00A025C330F500CD30F400F40BBC2FF50BEB
:100F7E00BC2FA0250230F6008630F5009930F40023
:100F8E00F40BC72FF50BC72FF60BC72FA02502307A
:100F9E00F6008630F5009930F400F40BD42FF50BE3
:100FAE00D42FF60BD42F8F25C330F500CD30F4009F
:100FBE00F40BDF2FF50BDF2FA025C330F500CD305E
:100FCE00F400F40BE82FF50BE82F8F258312031393
:100FDE0006104D30F6001930F5004F30F400F40BCA
:100FEE00F62FF50BF62FF60BF62FFD2FDC2D8301CA
:020FFE00D32DF1
:02400E00EAFFC7
:00000001FF
