:02000000FE2FD1
:100BD4008312031312150800831203131211080061
:100BE4008316031386110C308312031397005E30AF
:100BF4008316031392008312031312149210080035
:100C0400EA25831203130614C330F100CD30F0003B
:100C1400F00B0A2EF10B0A2E831203130610EE2595
:100C24000800EA258312031306144130F100EE3064
:100C3400F000F00B1B2EF10B1B2E0000831203138C
:100C44000610EE2508007108F3007008F200031086
:100C5400F30CF20C0310F30CF20C7208831203135E
:100C64009500CF30F200720897057008F200033047
:100C74000310F20DFF3E031D3A2E0310720D30399E
:100C8400F300730897040800F2250A30F0000030DE
:100C9400F10025268316031306100226C330F5003F
:100CA400CD30F400F40B542EF50B542E1326C33020
:100CB400F500CD30F400F40B5D2EF50B5D2E02260D
:100CC400C330F500CD30F400F40B662EF50B662E20
:100CD40013260230F6008630F5009930F400F40B48
:100CE400712EF50B712EF60B712E0226C330F50012
:100CF400CD30F400F40B7C2EF50B7C2E0226C33091
:100D0400F500CD30F400F40B852EF50B852E13265B
:100D1400C330F500CD30F400F40B8E2EF50B8E2E7F
:100D240002260230F6008630F5009930F400F40B08
:100D3400992EF50B992EF60B992E0226C330F50049
:100D4400CD30F400F40BA42EF50BA42E1326C330DF
:100D5400F500CD30F400F40BAD2EF50BAD2E0226CC
:100D6400C330F500CD30F400F40BB62EF50BB62EDF
:100D740013260230F6008630F5009930F400F40BA7
:100D8400C12EF50BC12EF60BC12E0226C330F50081
:100D9400CD30F400F40BCC2EF50BCC2E0226C33050
:100DA400F500CD30F400F40BD52EF50BD52E13261B
:100DB400C330F500CD30F400F40BDE2EF50BDE2E3F
:100DC40002260230F6008630F5009930F400F40B68
:100DD400E92EF50BE92EF60BE92E0226C330F500B9
:100DE400CD30F400F40BF42EF50BF42E1326C3309F
:100DF400F500CD30F400F40BFD2EF50BFD2E02268C
:100E0400C330F500CD30F400F40B062FF50B062F9C
:100E140013260230F6008630F5009930F400F40B06
:100E2400112FF50B112FF60B112F0226C330F500ED
:100E3400CD30F400F40B1C2FF50B1C2F0226C3300D
:100E4400F500CD30F400F40B252FF50B252F1326D8
:100E5400C330F500CD30F400F40B2E2FF50B2E2FFC
:100E640002260230F6008630F5009930F400F40BC7
:100E7400392FF50B392FF60B392F0226C330F50025
:100E8400CD30F400F40B442FF50B442F1326C3305C
:100E9400F500CD30F400F40B4D2FF50B4D2F022649
:100EA4000230F6008630F5009930F400F40B582F28
:100EB400F50B582FF60B582F0226C330F500CD3012
:100EC400F400F40B632FF50B632F0226C330F500F7
:100ED400CD30F400F40B6C2FF50B6C2F132602307D
:100EE400F6008630F5009930F400F40B772FF50BFB
:100EF400772FF60B772F0226C330F500CD30F400A0
:100F0400F40B822FF50B822F0226C330F500CD306F
:100F1400F400F40B8B2FF50B8B2F1326C330F50045
:100F2400CD30F400F40B942FF50B942F1326C3301B
:100F3400F500CD30F400F40B9D2FF50B9D2F1326F7
:100F44000230F6008630F5009930F400F40BA82F37
:100F5400F50BA82FF60BA82F1326C330F500CD30C0
:100F6400F400F40BB32FF50BB32F0226C330F500B6
:100F7400CD30F400F40BBC2FF50BBC2F132602303C
:100F8400F6008630F5009930F400F40BC72FF50B0A
:100F9400C72FF60BC72F0226C330F500CD30F4005F
:100FA400F40BD22FF50BD22F13260230F600863025
:100FB400F5009930F400F40BDD2FF50BDD2FF60B63
:100FC400DD2F0226C330F500CD30F400F40BE82FFA
:100FD400F50BE82F02268312031306103330F600B4
:100FE400BB30F500DF30F400F40BF62FF50BF62FD1
:0C0FF400F60BF62FFD2F4F2E8301462E2A
:02400E00EAFFC7
:00000001FF
