:02000000FE2FD1
:100BE600831203131215080083120313121108004F
:100BF600F325C330F100CD30F000F00B002EF10BE1
:100C0600002EF7250800F3254130F100EE30F00004
:100C1600F00B0B2EF10B0B2E0000F72508008316A8
:100C2600031386110C308312031397005E3083166C
:100C36000313920083120313121492100800710812
:100C4600F3007008F2000310F30CF20C0310F30C1F
:100C5600F20C7208831203139500CF30F20072086B
:100C660097057008F20003300310F20DFF3E031DD6
:100C7600372E0310720D3039F300730897040800FD
:100C860012260A30F0000030F100222683160313E4
:100C96000610831203130614FB25C330F500CD306E
:100CA600F400F40B542EF50B542E0626C330F50033
:100CB600CD30F400F40B5D2EF50B5D2EFB25C33015
:100CC600F500CD30F400F40B662EF50B662E0626E5
:100CD6000230F6008630F5009930F400F40B712EE0
:100CE600F50B712EF60B712EFB25C330F500CD30BA
:100CF600F400F40B7C2EF50B7C2EFB25C330F5009F
:100D0600CD30F400F40B852EF50B852E0626C33068
:100D1600F500CD30F400F40B8E2EF50B8E2EFB2550
:100D26000230F6008630F5009930F400F40B992E67
:100D3600F50B992EF60B992EFB25C330F500CD3019
:100D4600F400F40BA42EF50BA42E0626C330F500F2
:100D5600CD30F400F40BAD2EF50BAD2EFB25C330D4
:100D6600F500CD30F400F40BB62EF50BB62E0626A4
:100D76000230F6008630F5009930F400F40BC12EEF
:100D8600F50BC12EF60BC12EFB25C330F500CD3079
:100D9600F400F40BCC2EF50BCC2EFB25C330F5005E
:100DA600CD30F400F40BD52EF50BD52E0626C33028
:100DB600F500CD30F400F40BDE2EF50BDE2EFB2510
:100DC6000230F6008630F5009930F400F40BE92E77
:100DD600F50BE92EF60BE92EFB25C330F500CD30D9
:100DE600F400F40BF42EF50BF42E0626C330F500B2
:100DF600CD30F400F40BFD2EF50BFD2EFB25C33094
:100E0600F500CD30F400F40B062FF50B062F062661
:100E16000230F6008630F5009930F400F40B112FFD
:100E2600F50B112FF60B112FFB25C330F500CD3036
:100E3600F400F40B1C2FF50B1C2FFB25C330F5001B
:100E4600CD30F400F40B252FF50B252F0626C330E5
:100E5600F500CD30F400F40B2E2FF50B2E2FFB25CD
:100E66000230F6008630F5009930F400F40B392F85
:100E7600F50B392FF60B392FFB25C330F500CD3096
:100E8600F400F40B442FF50B442F0626C330F5006F
:100E9600CD30F400F40B4D2FF50B4D2FFB25023012
:100EA600F6008630F5009930F400F40B582FF50B58
:100EB600582FF60B582FFB25C330F500CD30F40024
:100EC600F40B632FF50B632FFB25C330F500CD30F4
:100ED600F400F40B6C2FF50B6C2F06260230F6008F
:100EE6008630F5009930F400F40B772FF50B772F49
:100EF600F60B772FFB25C330F500CD30F400F40B4D
:100F0600822FF50B822FFB25C330F500CD30F40080
:100F1600F40B8B2FF50B8B2F0626C330F500CD3047
:100F2600F400F40B942FF50B942F0626C330F5002E
:100F3600CD30F400F40B9D2FF50B9D2F06260230C5
:100F4600F6008630F5009930F400F40BA82FF50B67
:100F5600A82FF60BA82F0626C330F500CD30F400D7
:100F6600F40BB32FF50BB32FFB25C330F500CD30B3
:100F7600F400F40BBC2FF50BBC2F06260230F6004E
:100F86008630F5009930F400F40BC72FF50BC72F08
:100F9600F60BC72FFB25C330F500CD30F400F40B5C
:100FA600D22FF50BD22F06260230F6008630F5003A
:100FB6009930F400F40BDD2FF50BDD2FF60BDD2F4A
:100FC600FB25C330F500CD30F400F40BE82FF50B0C
:100FD600E82FFB258312031306104D30F600193057
:100FE600F5004F30F400F40BF62FF50BF62FF60B49
:0A0FF600F62FFD2F4C2E8301432E31
:02400E00EAFFC7
:00000001FF
