:02000000FE2FD1
:100F340083120313121508008316031386110C3051
:100F44008312031397005E308316031392008312F7
:100F540003131214921008007108F3007008F200D1
:100F64000310F30CF20C0310F30CF20C720883124E
:100F740003139500CF30F200720897057008F20051
:100F840003300310F20DFF3E031DC32F0310720D37
:100F94003039F3007308970408009E27F701F8011D
:100FA4008316031306109A277808F1007708F000D7
:100FB400AE270830F6009D30F5000530F400F40B40
:100FC400E12FF50BE12FF60BE12FE82F7808803A9B
:100FD400FF0084307F02031DF12F1A307702031CB7
:100FE400F52FF701F8017708323EF7007808031867
:0C0FF400013E003EF800D62F8301CF2FF5
:02400E00EAFFC7
:00000001FF
